:0300000002028376
:0C028300787FE4F6D8FD7581200202CAE5
:1004250000C000F900A400B000990092008200F815
:10043500008000900088008300C600A10086008E21
:0204450000BFF6
:100401005000020000000000000000000000000099
:080411000000004200000000A1
:070003008F80D294C2942209
:1004470074017E00A807088005C333CE33CED8F9E0
:06045700F580D295C2956C
:01045D00227C
:10030F0030006BC2007F087E00120447900001E0AE
:10031F0025E0FF900000E0338F82F583120079FD16
:10032F00ACF0642D4C70059004458012ED25E0FF74
:10033F00EC33FE74252FF58274043EF583E493FEAF
:10034F00740193FF120003900000E0FEA3E0FF1280
:10035F000447900000E475F001120063FED3E5F04E
:0E036F009407EE94004007E4900000F0A3F025
:01037D00225D
:1003DD00C29612045E7B1E7A007D147C007F0A7E1D
:1003ED00001201E8D2AF7B017A00790212030F12DD
:0403FD00012880F261
:0B041900C100C10144001200000000FF
:10045E005389F0438901758CF8758ACCD28CD2A958
:01046E00226B
:03000B0002037E6F
:10037E00C0E0C0F0C083C082C0D075D000C000C045
:10038E0001C002C003C004C005C006C007758CF8CA
:10039E00758ACCD2009000121200C2E47BF47A016E
:1003AE00F9F8C31200B1700C9000121200F70000A1
:1003BE000000D201D007D006D005D004D003D00261
:0F03CE00D001D000D0D0D082D083D0F0D0E03298
:100128002001030201E7C201900010E475F00112FA
:100138000063FEE5F0640A4E60030201E7900010D8
:10014800F0A3F090000E75F001120063FEE5F06474
:10015800064E60030201E790000EF0A3F090000A3B
:1001680075F001120063FEE5F0640A4E70719000AC
:100178000AF0A3F090000875F001120063FEE5F0A4
:1001880064064E705A900008F0A3F0C3900003E094
:100198009402900002E094005027900004E475F067
:1001A80001120063FEE5F0640A4E7033900004F01B
:1001B800A3F0900003E004F07006900002E004F061
:1001C80022900004E475F001120063FEE5F0640477
:1001D8004E700C900004F0A3F0900002F0A3F022FF
:1001E800900016EEF0A3EFF0A3ECF0A3EDF0900072
:1001F80016E0FEA3E0FF7C007D0A12000E900002CC
:10020800EEF0A3EFF0900016E0FEA3E0FF7C007D87
:100218000A12000E900004ECF0A3EDF0A3E4F0A3A2
:10022800742DF0900018E0FEA3E0FF7C007D0A1218
:10023800000E900008EEF0A3EFF0900018E0FEA387
:10024800E0FF7C007D0A12000E90000AECF0A3ED9E
:10025800F0A3E4F0A3742DF07C007D0AAF03AE0296
:1002680012000EA3EEF0A3EFF0AE02AF037C007D08
:0B0278000A12000EA3ECF0A3EDF02230
:10028F000203DDE493A3F8E493A34003F68001F2A5
:10029F0008DFF48029E493A3F85407240CC8C33370
:1002AF00C4540F4420C8834004F456800146F6DF3F
:1002BF00E4800B0102040810204080900401E47ECA
:1002CF00019360BCA3FF543F30E509541FFEE49334
:1002DF00A360010ECF54C025E060A840B8E493A3FB
:1002EF00FAE493A3F8E493A3C8C582C8CAC583CA26
:1002FF00F0A3C8C582C8CAC583CADFE9DEE780BEDE
:0104240000D7
:10000E00BC000BBE0029EF8DF084FFADF022E4CCD6
:10001E00F875F008EF2FFFEE33FEEC33FCEE9DEC9F
:10002E00984005FCEE9DFE0FD5F0E9E4CEFD22EDE5
:10003E00F8F5F0EE8420D21CFEADF075F008EF2F2F
:10004E00FFED33FD4007985006D5F0F222C398FD20
:05005E000FD5F0EA22BD
:10006300C5F0F8A3E028F0C5F0F8E5821582700228
:060073001583E038F022C5
:10007900BB0110E58229F582E5833AF583E0F5F0C5
:10008900A3E0225009E92582F886F008E622BBFEA2
:100099000AE92582F8E2F5F008E222E5832AF583E8
:0800A900E993F5F0A3E99322AD
:1000B100EB9FF5F0EA9E42F0E99D42F0E89C45F0A5
:0100C100221C
:1000C2007401FF3395E0FEFDFCA3A3A3E02FFFF034
:1000D200E582158270021583E03EFEF0E58215820C
:1000E20070021583E03DFDF0E582158270021583F2
:0500F200E03CFCF022DF
:1000F700A8828583F0D083D08212010E12010E12DE
:10010700010E12010EE473E493A3C583C5F0C58302
:10011700C8C582C8F0A3C583C5F0C583C8C582C852
:0101270022B5
:00000001FF
